:030000000214F8EF
:0C14F800787FE4F6D8FD75814B020851A6
:101272004452415720504152540044524157205247
:10128200454354414E474C450044524157204C4936
:101292004E45004452415720434952434C45005069
:1012A20052494E542043484152004C43544543480E
:1012B200006C63746563682D696E632E74616F627E
:0312C200616F0059
:10085100C2927F327E00121489D2927F647E00128E
:0C0861001489120C3B7F147E00121489D5
:10086D007F007EF812130F7BFF7A12797274FFF5F9
:10087D000FF5107511F87512007D097F0412134ADA
:10088D00750805E50875F00AA4FDFFE50875F00A81
:10089D00A4FEC3747F9EFBC3749F9EF50DE4F50EFD
:1008AD00F50F1212167FF47E011214891508E50852
:1008BD00D3940150CE7FE07E0712130F7BFF7A1287
:1008CD00797CE4F50FF5107511077512E07D137F36
:1008DD00011213C0750801E50875F00AA4FDFFE5C6
:1008ED000875F00AA4FEC3747F9EFBC3749F9EF52A
:1008FD000DE4F50EF50F1212C57FF47E0112148969
:10090D000508E508C3940740CE7F1F7E0012130F24
:10091D007BFF7A12798B74FFF50FF5107511007549
:10092D00121F7D097F0412134A75139FE4F514F508
:10093D00157B7FFDFF120AB5E4F513F514F5157B54
:10094D007F7D9FFF120AB5750801E50875F00CA4AF
:10095D00FBFF75139FE4F514F515FD120AB5E508B7
:10096D0075F00FA4FDF513E4F514F5157B7FFF125B
:10097D000AB57FF47E011214890508E508C3940AAF
:10098D0040C87F1F7EF812130F7BFF7A1279957482
:10099D00FFF50FF5107511F875121F7D097F021205
:1009AD00134A750801E50875F00AA4FBE4F50DF589
:1009BD000E7D4F7F3F120DA07FF47E01121489052D
:1009CD0008E508C3940740DD7F087EFC12130F7BFA
:1009DD00FF7A1279A174FFF50FF5107511FC7512E0
:1009ED00087D097F0312134AE4F508E4F509E508CB
:1009FD0075F008A424202509FBE4F516F5177518E4
:100A0D00FC751908AD08AF091210A07F327E0012D7
:100A1D0014890509E509C3941540D30508E508C3F4
:100A2D00940840C7750808E4F509E50875F008A4B1
:100A3D0024202509FB75160075171F7518FC7519EF
:100A4D0008AD08AF0912100D7F327E001214890512
:100A5D0009E509C3941040D20508E508C3940F4079
:100A6D00C67FF47E01121489E4FFFE12130F7BFF83
:100A7D007A1279AC750F0075101FE4F511F5127D22
:100A8D00077F0412134A7BFF7A1279B374FFF50FB7
:100A9D00F510E4F511F5127D127F021213857FE832
:050AAD007E0312148914
:030AB20002086DCA
:100C3B007F111214C67F647E001214897F3A12143E
:100C4B00C67F551214707F261214C67F04121470BF
:100C5B007FF21214C67F011214707FE01214C67F4C
:100C6B003F1214707F251214707F1C1214707F1E9C
:100C7B001214707F201214707F121214707F2A12BC
:100C8B0014707F901214707F241214707F11121441
:100C9B0070E4FF121470E4FF121470E4FF1214706E
:100CAB00E4FF121470E4FF1214707FE11214C67F7C
:100CBB00201214707F201214707F201214707F206A
:100CCB001214707F05121470E4FF1214707F15124A
:100CDB0014707FA71214707F3D1214707F181214BA
:100CEB00707F251214707F2A1214707F2B121470D0
:100CFB007F2B1214707F3A1214707FB11214C67FBF
:100D0B00081214707F081214707FB41214C67F0778
:100D1B001214707FC01214C67F0A1214707F021255
:100D2B0014707FC11214C67F021214707FC5121487
:100D3B00C67F4F1214707F5A1214707FC71214C6DD
:100D4B007F401214707F2A1214C6E4FF121470E451
:100D5B00FF121470E4FF1214707F7F1214707F2B3C
:100D6B001214C6E4FF121470E4FF121470E4FF12A5
:100D7B0014707F9F1214707F361214C67FC012142A
:100D8B00707FB71214C6E4FF1214707F291214C6B9
:050D9B007F2C0214C6CC
:1014C600C293C296E4FEC295EF339294D295EF256D
:0814D600E0FF0EBE08F0D29603
:0114DE0022EB
:0F1461001214C6E4FF121470E4FF121470E4FFBB
:10147000D293C296E4FEC295EF339294D295EF25B3
:08148000E0FF0EBE08F0D29659
:011488002241
:0413FB00AB07AA068C
:1013FF00D293C296AF02E4FEC295EF339294D29588
:10140F00EF25E0FF0EBE08F0D296AF03C296E4FEC2
:10141F00C295EF339294D295EF25E0FF0EBE08F000
:02142F00D29653
:011431002298
:10143200AC077F2A1214C6E4FF121470AF04121410
:101442006BAF031214707F2B1214C6E4FF121470D8
:0F145200AF0512146BAF291214707F2C0214C651
:1014DF007F2A1214617F7F1214707F2B1214617F89
:0914EF009F1214707F2C0214C638
:10148900E4FDFCC3ED9FEC9E5015E4FBFA0BBB0099
:0F149900010AEB64FA4A70F50DBD00010C80E406
:0114A8002221
:04130F008E0A8F0BA8
:101313001214DFE4F50CF50DE4F50EF50FAF0BAE8B
:101323000A1213FB050FE50F7002050EC39480E547
:101333000E940040E8050DE50D7002050CC394A062
:06134300E50C940040D20D
:011349002281
:061216008F0A8D0B8B0C0A
:10121C00850D29121432E4F511C3E50D950BFFE48D
:10122C009400CF2401CF3400FEC3E5119FEE6480FF
:10123C00F8748098502FE4F510C3E50C950AFFE480
:10124C009400CF2401CF3400FEC3E5109FEE6480E0
:10125C00F8748098500BAF0FAE0E1213FB05108074
:05126C00D8051180B45B
:01127100225A
:1012C5008F0A8D0B8B0C850D13850E14850F15ABB1
:1012D5000A120AB5850D13850E14850F15AB0CADD5
:1012E5000BAF0C120AB5850B13850E14850F15ABC4
:1012F5000CAD0BAF0A120AB5850D13850E14850FBB
:0A13050015AB0CAD0DAF0A020AB5DE
:060DA0008F0A8D0B8B0C85
:100DA600850C10E50AC3950C5003020E74748095E9
:100DB6000AC3950C5003020E74E50B950C50030202
:100DC6000E7474A0950BC3950C5003020E74E4F5D3
:100DD6000FE50FD3950C4003020E74E50CF5F0A455
:100DE6002401FDE435F0FCE50FF5F0A4FFC3ED9F0B
:100DF600FDEC95F0FCE510F5F0A4FFC3ED9FE5F0E2
:100E06006480F8EC6480985004151080CEE50A25BD
:100E16000F1214A9C3E50A950F1214A9C3E50A9582
:100E26000FFFE50B25101214AFE50A250FFFE50BA2
:100E360025101214AFE50A2510FFC3E50B950F1216
:100E460014AFC3E50A9510FFC3E50B950F1214AF57
:100E5600C3E50A9510FFE50B250F1214AFE50A2529
:0E0E660010FFE50B250F1214AF050F020DD77C
:010E7400225B
:060AB5008F108D118B1261
:100ABB00E4F520F521F522F523E510651270348558
:100ACB001329121432E4F516C3E5139511FFE494C0
:100ADB0000CF2401CF3400FEC3E5169FEE6480F8EF
:100AEB007480984003020C3AAF15AE141213FB0539
:100AFB001680D5E5116513703A851329AB12AD112C
:100B0B00AF10121432E4F516C3E5129510FFE494FE
:100B1B0000CF2401CF3400FEC3E5169FEE6480F8AE
:100B2B007480984003020C3AAF15AE141213FB05F8
:100B3B001680D5C3E5129510F519E49400F518C38A
:100B4B00E5139511F51BE49400F51AD3E519940000
:100B5B00E518648094804008751C00751D01801198
:100B6B0074FFF51CF51DC3E49519F519E49518F5FB
:100B7B0018D3E51B9400E51A648094804008751E19
:100B8B0000751F01801174FFF51EF51FC3E4951B43
:100B9B00F51BE4951AF51AD3E519951BE51A648034
:100BAB00F8E51864809840058519178003851B1795
:100BBB00E4F516E5172401FFE433FED3E5169FEEAB
:100BCB006480F87480985067AB15AA14AD11AF1000
:100BDB001214B4E5192521F521E5183520F520E58A
:100BEB001B2523F523E51A3522F522AF177E00D3FB
:100BFB00E5219F7480F86520984010E5219FF52131
:100C0B00E5209EF520E51D2510F510AF177E00D3CE
:100C1B00E5239F7480F86522984010E5239FF52308
:0F0C2B00E5229EF522E51F2511F511051680849F
:010C3A002297
:0B14A900FFC3E50B9510FDAB0EAA0D74
:1014B4008A248B25AB078D29121432AF25AE240262
:0214C40013FB18
:100003000000000000000000004F00000000070097
:10001300070000147F147F1400242A7F2A12002370
:10002300130864620036495522500000050300009E
:1000330000001C224100000041221C000014083E65
:1000430008140008083E08080000503000000008AB
:10005300080808080000606000000020100804027F
:10006300003E5149453E0000427F4000004261513D
:100073004946002141454B31001814127F100027D7
:1000830045454539003C4A4949300001710905039A
:1000930000364949493600064949291E00003636CB
:1000A300000000005636000000081422410000142E
:1000B300141414140000412214080002015109060B
:1000C30000324979413E007E1111117E007F49497A
:1000D300493E003E41414122007F4141221C007FB5
:1000E30049494941007F09090901003E4149497ACB
:1000F300007F0808087F0000417F41000020404145
:100103003F01007F08142241007F40404040007FB0
:100113000204027F007F0408107F003E4141413EFC
:10012300007F09090906003E4151215E007F09193C
:1001330029460046494949310001017F0101003F39
:100143004040403F001F2040201F003F4038403FB9
:100153000063140814630003047804030061514925
:10016300454300007F4141000015167C1615000031
:1001730041417F000004020102040040404040402E
:10018300000001020400002054545478007F4844C6
:10019300443800384444442000384444487F0038FD
:1001A3005454541800087E090102000C5252523E66
:1001B300007F080404780000447D40000020404490
:1001C3003D00007F102844000000417F4000007E76
:1001D300020C027C007E0402027C00384444443852
:1001E300007C1414140800081414187C007C080400
:1001F300040800485454542000043F444020003C69
:100203004040207C001C2040201C003C4030403CEF
:10021300004428102844000C5050503C00446454BF
:100223004C440000083641000000007F000000003D
:10023300413608000008040810080008082A1C08B2
:1002430000081C2A08080004027F02040010207F13
:100253002010001C2A322A1C001C2244221C0000ED
:10026300000000000000000000000000000000008B
:1002730010101010101010100000101000000000DB
:1002830024242424000000000000000000000000DB
:10029300484848FE24242424247F1212120000100C
:1002A3007C929212141830509092927C10000000AD
:1002B3008C9252322C1008689492926000000000D5
:1002C300182424241898A4A24242A29C00000000EF
:1002D30010101010000000000000000000000020BB
:1002E300100808040404040404080810200000048F
:1002F30008101020202020202010100804000000E7
:10030300000000082A1C1422000000000000000066
:100313000000101010FE101010000000000000007C
:1003230000000000000000000000101008000000A2
:100333000000000000FE00000000000000000000BC
:10034300000000000000000000001010000000008A
:10035300404020201010080804040202000000009E
:100363003844828282828282828244380000000082
:10037300101C1010101010101010101000000000AE
:100383003C424240402010080402027E000000006C
:100393003C424240403C40404042423C000000005E
:1003A3006060505048484444FE4040400000000014
:1003B3007E0202023E4240404042423C00000000B6
:1003C3003C424202023E42424242423C00000000A2
:1003D3007E402020101010080808080800000000C4
:1003E3003C424242423C42424242423C0000000004
:1003F3003C42424242427C404042423C00000000B8
:1004030000000808000000000808000000000000C9
:100413000000101000000000101010080000000081
:1004230000403008060106083040000000000000CC
:1004330000000000FE0000FE0000000000000000BD
:1004430000020C10608060100C020000000000002D
:100453003844828240201010100010100000000069
:10046300384482B2AAAAAAAAD20284780000000061
:1004730010101028282844447C8282820000000047
:100483003E428282423E42828282423E000000001D
:100493003844828202020202828244380000000051
:1004A3003E424282828282828242423E00000000B9
:1004B300FE020202027E0202020202FE00000000AD
:1004C300FE020202027E0202020202020000000099
:1004D300384482020202E2828282C4B80000000031
:1004E3008282828282FE8282828282820000000075
:1004F3001010101010101010101010100000000039
:1005030020202020202020202022221C0000000068
:10051300824222120A06060A1222428200000000C8
:1005230002020202020202020202027E0000000034
:100533008282C6C6AAAA9292928282820000000098
:100543008286868A8A9292A2A2C2C2820000000098
:100553003844828282828282828244380000000090
:100563003E42828282423E020202020200000000F8
:10057300384482828282828282A244B800000000D0
:100583003E42828282423E42828282820000000098
:100593007C828202041820408082827C000000005A
:1005A300FE1010101010101010101010000000009A
:1005B30082828282828282828282827C0000000026
:1005C300828282444444282828101010000000002E
:1005D3009292929292AAAAAA444444440000000030
:1005E3008282444428102828444482820000000068
:1005F30082824444282810101010101000000000BC
:100603007E402020101008080404027E00000078B9
:1006130008080808080808080808080878000000FF
:10062300929292FF92AAAAAA444444440000001E54
:100633001010101010101010101010101E000010C9
:10064300284400000000000000000000000000003B
:10065300000000000000000000000000FE00000495
:10066300081000000000000000000000000000006F
:10067300000000003C42407C424242BC00000000BB
:10068300020202023A4682828282463A0000000057
:100693000000000078840202020284780000000057
:1006A30080808080B8C482828282C4B80000000047
:1006B30000000000384482FE02028478000000003B
:1006C300700808087E0808080808080800000000E9
:1006D3000000000058644242426458423C0000005B
:1006E300020202023A4642424242424200000000F3
:1006F3001010000010101010101010100000000057
:100703001010000010101010101010100C0000003A
:100713000202024222120A060A12224200000000CA
:100723001010101010101010101010100000000006
:10073300000000006E92929292929292000000004A
:10074300000000003A46424242424242000000009A
:100753000000000038448282828244380000000096
:10076300000000003A46828282463A0202000000FC
:1007730000000000B8C4828282C4B88080000000F8
:1007830000000000740C04040404040400000000CE
:10079300000000003C42020C3040423C00000000DC
:1007A300080808087E080808080808700000000008
:1007B30000000000424242424242427C00000000EC
:1007C300000000008282444428281010000000002A
:1007D3000000000082929292AA6C44440000000040
:1007E300000000008244281010284482000000000A
:1007F3000000000082824444282810100E000000EC
:10080300000000007E4020100804027E000000600B
:1008130010101010100C10101010101060000010A9
:1008230010101010101010101010101010000006EF
:100833000808080808300808080808080600000027
:0E084300000000008C720000000000000000A9
:061125008B15AE05AC07BE
:10112B00EC75F008A4FFEEC454F0FDEC75F008A4C8
:10113B002407FBEEC454F0240FF529121432E4F506
:10114B001BE4F51A75F010E515A42461F582E5F0A2
:10115B003400F583E582251BF582E43583F583E4C2
:10116B0093FD7C0074017E00A81A088005C333CE62
:10117B0033CED8F9FFEE5CFEEF5D4E6006AF17AED7
:10118B00168004AF19AE181213FB051AE51AC39497
:0C119B000840B1051BE51BC3941040A5E3
:0111A7002225
:10134A008F0A8D0B8B0C8A0D890EAB0CAA0DA90E78
:10135A001211A86025AF0A050A050EE50E700205EE
:10136A000D14F91211A8FB850F168510178511188F
:0B137A00851219AD0B12112580D02246
:0610A0008B15AE05AC0744
:1010A600EC75F006A4FFEE75F008A4FDEC75F006ED
:1010B600A42405FBEE75F008A42407F529121432C2
:1010C600E4F51BE4F51A75F006E515A42443F5824C
:1010D600E5F034FFF583E582251AF582E43583F5DC
:1010E60083E493FD7C0074017E00A81B088005C381
:1010F60033CE33CED8F9FFEE5CFEEF5D4E6006AF21
:1011060017AE168004AF19AE181213FB051AE51AAE
:0E111600C3940640B1051BE51BC3940840A519
:0111240022A8
:101385008F0A8D0B8B0C8A0D890EAB0CAA0DA90E3D
:101395001211A86025AF0A050A050EE50E700205B3
:1013A5000D14F91211A8FB850F1685101785111854
:0B13B500851219AD0B1210A080D02291
:040E75008F2A8D2B08
:100E7900E4F53374352533F8E4F60533E533B40680
:100E8900F2E4F5337C007D0AAF03AE021211C1EF23
:100E99004E60257C007D0AAF03AE021211C1743584
:100EA9002533F8A6057C007D0AAF03AE021211C1F5
:100EB900AA06AB07053380CCAF0374352533F8A6F2
:100EC90007853334C3E53364809480400D74352538
:100ED90033F8743026F6153380EAE4F533AD33ED93
:100EE9003395E0FCC3ED952E7480F86C98501CE5A1
:100EF9002B2533FD852F1685301785311885321935
:100F09007B20AF2A1210A0053380D2853433C3E584
:100F190033648094804020AF2A052A74352533F83C
:100F2900E6FB852F16853017853118853219AD2BCB
:070F39001210A0153380D750
:010F4000228E
:06100D008B15AE05AC07D7
:10101300EC75F008A4FFEE75F008A4FDEC75F0087C
:10102300A42407FBEE75F008A42407F52912143253
:10103300E4F51BAF19AE181213FBE4F51A75F006AD
:10104300E515A42443F582E5F034FFF583E5822515
:101053001AF582E43583F583E493FD7C0074017E05
:1010630000A81B088005C333CE33CED8F9FFEE5C4E
:10107300FEEF5D4E6006AF17AE168004AF19AE18D3
:101083001213FB051AE51AC3940640B1AF19AE1843
:0C1093001213FB051BE51BC394084097DB
:01109F00222E
:1013C0008F0A8D0B8B0C8A0D890EAB0CAA0DA90E02
:1013D0001211A86025AF0A050A050EE50E70020578
:1013E0000D14F91211A8FB850F1685101785111819
:0B13F000851219AD0B12100D80D022E9
:040F41008F3B8D3C19
:100F4500E4F54474462544F8E4F60544E544B4065E
:100F5500F2E4F5447C007D0AAF03AE021211C1EF45
:100F65004E60257C007D0AAF03AE021211C17446A6
:100F75002544F8A6057C007D0AAF03AE021211C117
:100F8500AA06AB07054480CCAF0374462544F8A6F2
:100F950007854445C3E54464809480400D74462527
:100FA50044F8743026F6154480EAE4F544AD44ED82
:100FB5003395E0FCC3ED953F7480F86C98501CE5C3
:100FC5003C2544FD85401685411785421885431902
:100FD5007B20AF3B12100D054480D2854544C3E507
:100FE50044648094804020AD3C053C74462544F81B
:100FF500E6FB854016854117854218854319AF3BA9
:0710050012100D154480D705
:01100C0022C1
:1011A800BB010689828A83E0225002E722BBFE0245
:0911B800E32289828A83E4932278
:1011C100BC000BBE0029EF8DF084FFADF022E4CC12
:1011D100F875F008EF2FFFEE33FEEC33FCEE9DECDB
:1011E100984005FCEE9DFE0FD5F0E9E4CEFD22ED21
:1011F100F8F5F0EE8420D21CFEADF075F008EF2F6B
:10120100FFED33FD4007985006D5F0F222C398FD5B
:051211000FD5F0EA22F8
:00000001FF
